{
  "_format": "hh-sol-artifact-1",
  "contractName": "LumenToken",
  "sourceName": "contracts/LumenToken.sol",
  "abi": [
    {
      "inputs": [
        {
          "internalType": "uint256",
          "name": "_initialSupply",
          "type": "uint256"
        }
      ],
      "stateMutability": "nonpayable",
      "type": "constructor"
    },
    {
      "anonymous": false,
      "inputs": [
        {
          "indexed": true,
          "internalType": "address",
          "name": "owner",
          "type": "address"
        },
        {
          "indexed": true,
          "internalType": "address",
          "name": "spender",
          "type": "address"
        },
        {
          "indexed": false,
          "internalType": "uint256",
          "name": "value",
          "type": "uint256"
        }
      ],
      "name": "Approval",
      "type": "event"
    },
    {
      "anonymous": false,
      "inputs": [
        {
          "indexed": true,
          "internalType": "address",
          "name": "to",
          "type": "address"
        },
        {
          "indexed": false,
          "internalType": "uint256",
          "name": "value",
          "type": "uint256"
        }
      ],
      "name": "Distribution",
      "type": "event"
    },
    {
      "anonymous": false,
      "inputs": [
        {
          "indexed": true,
          "internalType": "address",
          "name": "requester",
          "type": "address"
        },
        {
          "indexed": true,
          "internalType": "address",
          "name": "from",
          "type": "address"
        },
        {
          "indexed": false,
          "internalType": "uint256",
          "name": "value",
          "type": "uint256"
        }
      ],
      "name": "Request",
      "type": "event"
    },
    {
      "anonymous": false,
      "inputs": [
        {
          "indexed": true,
          "internalType": "address",
          "name": "from",
          "type": "address"
        },
        {
          "indexed": true,
          "internalType": "address",
          "name": "to",
          "type": "address"
        },
        {
          "indexed": false,
          "internalType": "uint256",
          "name": "value",
          "type": "uint256"
        }
      ],
      "name": "RequestApproved",
      "type": "event"
    },
    {
      "anonymous": false,
      "inputs": [
        {
          "indexed": true,
          "internalType": "address",
          "name": "from",
          "type": "address"
        },
        {
          "indexed": true,
          "internalType": "address",
          "name": "to",
          "type": "address"
        }
      ],
      "name": "RequestDeclined",
      "type": "event"
    },
    {
      "anonymous": false,
      "inputs": [
        {
          "indexed": true,
          "internalType": "address",
          "name": "from",
          "type": "address"
        },
        {
          "indexed": true,
          "internalType": "address",
          "name": "to",
          "type": "address"
        },
        {
          "indexed": false,
          "internalType": "uint256",
          "name": "value",
          "type": "uint256"
        }
      ],
      "name": "Transfer",
      "type": "event"
    },
    {
      "inputs": [
        {
          "internalType": "address",
          "name": "",
          "type": "address"
        },
        {
          "internalType": "address",
          "name": "",
          "type": "address"
        }
      ],
      "name": "allowance",
      "outputs": [
        {
          "internalType": "uint256",
          "name": "",
          "type": "uint256"
        }
      ],
      "stateMutability": "view",
      "type": "function"
    },
    {
      "inputs": [
        {
          "internalType": "address",
          "name": "_spender",
          "type": "address"
        },
        {
          "internalType": "uint256",
          "name": "_value",
          "type": "uint256"
        }
      ],
      "name": "approve",
      "outputs": [
        {
          "internalType": "bool",
          "name": "success",
          "type": "bool"
        }
      ],
      "stateMutability": "nonpayable",
      "type": "function"
    },
    {
      "inputs": [
        {
          "internalType": "address",
          "name": "_to",
          "type": "address"
        }
      ],
      "name": "approveRequest",
      "outputs": [
        {
          "internalType": "bool",
          "name": "success",
          "type": "bool"
        }
      ],
      "stateMutability": "nonpayable",
      "type": "function"
    },
    {
      "inputs": [
        {
          "internalType": "address",
          "name": "",
          "type": "address"
        }
      ],
      "name": "balanceOf",
      "outputs": [
        {
          "internalType": "uint256",
          "name": "",
          "type": "uint256"
        }
      ],
      "stateMutability": "view",
      "type": "function"
    },
    {
      "inputs": [],
      "name": "decimals",
      "outputs": [
        {
          "internalType": "uint8",
          "name": "",
          "type": "uint8"
        }
      ],
      "stateMutability": "view",
      "type": "function"
    },
    {
      "inputs": [
        {
          "internalType": "address",
          "name": "_to",
          "type": "address"
        }
      ],
      "name": "declineRequest",
      "outputs": [
        {
          "internalType": "bool",
          "name": "success",
          "type": "bool"
        }
      ],
      "stateMutability": "nonpayable",
      "type": "function"
    },
    {
      "inputs": [
        {
          "internalType": "address",
          "name": "_to",
          "type": "address"
        },
        {
          "internalType": "uint256",
          "name": "_value",
          "type": "uint256"
        }
      ],
      "name": "distribute",
      "outputs": [
        {
          "internalType": "bool",
          "name": "success",
          "type": "bool"
        }
      ],
      "stateMutability": "nonpayable",
      "type": "function"
    },
    {
      "inputs": [
        {
          "internalType": "address",
          "name": "_holder",
          "type": "address"
        }
      ],
      "name": "getHolderBalance",
      "outputs": [
        {
          "internalType": "uint256",
          "name": "",
          "type": "uint256"
        }
      ],
      "stateMutability": "view",
      "type": "function"
    },
    {
      "inputs": [],
      "name": "name",
      "outputs": [
        {
          "internalType": "string",
          "name": "",
          "type": "string"
        }
      ],
      "stateMutability": "view",
      "type": "function"
    },
    {
      "inputs": [],
      "name": "owner",
      "outputs": [
        {
          "internalType": "address",
          "name": "",
          "type": "address"
        }
      ],
      "stateMutability": "view",
      "type": "function"
    },
    {
      "inputs": [
        {
          "internalType": "address",
          "name": "_from",
          "type": "address"
        },
        {
          "internalType": "uint256",
          "name": "_value",
          "type": "uint256"
        }
      ],
      "name": "requestTokens",
      "outputs": [
        {
          "internalType": "bool",
          "name": "success",
          "type": "bool"
        }
      ],
      "stateMutability": "nonpayable",
      "type": "function"
    },
    {
      "inputs": [
        {
          "internalType": "address",
          "name": "",
          "type": "address"
        },
        {
          "internalType": "address",
          "name": "",
          "type": "address"
        }
      ],
      "name": "requests",
      "outputs": [
        {
          "internalType": "uint256",
          "name": "",
          "type": "uint256"
        }
      ],
      "stateMutability": "view",
      "type": "function"
    },
    {
      "inputs": [],
      "name": "symbol",
      "outputs": [
        {
          "internalType": "string",
          "name": "",
          "type": "string"
        }
      ],
      "stateMutability": "view",
      "type": "function"
    },
    {
      "inputs": [],
      "name": "totalSupply",
      "outputs": [
        {
          "internalType": "uint256",
          "name": "",
          "type": "uint256"
        }
      ],
      "stateMutability": "view",
      "type": "function"
    },
    {
      "inputs": [
        {
          "internalType": "address",
          "name": "_to",
          "type": "address"
        },
        {
          "internalType": "address",
          "name": "_from",
          "type": "address"
        },
        {
          "internalType": "uint256",
          "name": "_value",
          "type": "uint256"
        }
      ],
      "name": "transfer",
      "outputs": [
        {
          "internalType": "bool",
          "name": "success",
          "type": "bool"
        }
      ],
      "stateMutability": "nonpayable",
      "type": "function"
    },
    {
      "inputs": [
        {
          "internalType": "address",
          "name": "_from",
          "type": "address"
        },
        {
          "internalType": "address",
          "name": "_to",
          "type": "address"
        },
        {
          "internalType": "uint256",
          "name": "_value",
          "type": "uint256"
        }
      ],
      "name": "transferFrom",
      "outputs": [
        {
          "internalType": "bool",
          "name": "success",
          "type": "bool"
        }
      ],
      "stateMutability": "nonpayable",
      "type": "function"
    }
  ],
  "bytecode": "0x60806040526040518060400160405280600581526020017f4c756d656e00000000000000000000000000000000000000000000000000000081525060009081610048919061044d565b506040518060400160405280600381526020017f4c4d4e00000000000000000000000000000000000000000000000000000000008152506001908161008d919061044d565b506012600260006101000a81548160ff021916908360ff1602179055503480156100b657600080fd5b506040516120e83803806120e883398181016040528101906100d89190610550565b600260009054906101000a900460ff1660ff16600a6100f791906106df565b81610102919061072a565b600381905550600354600560003073ffffffffffffffffffffffffffffffffffffffff1673ffffffffffffffffffffffffffffffffffffffff1681526020019081526020016000208190555033600460006101000a81548173ffffffffffffffffffffffffffffffffffffffff021916908373ffffffffffffffffffffffffffffffffffffffff1602179055503073ffffffffffffffffffffffffffffffffffffffff16600073ffffffffffffffffffffffffffffffffffffffff167fddf252ad1be2c89b69c2b068fc378daa952ba7f163c4a11628f55a4df523b3ef6003546040516101ef919061077b565b60405180910390a350610796565b600081519050919050565b7f4e487b7100000000000000000000000000000000000000000000000000000000600052604160045260246000fd5b7f4e487b7100000000000000000000000000000000000000000000000000000000600052602260045260246000fd5b6000600282049050600182168061027e57607f821691505b60208210810361029157610290610237565b5b50919050565b60008190508160005260206000209050919050565b60006020601f8301049050919050565b600082821b905092915050565b6000600883026102f97fffffffffffffffffffffffffffffffffffffffffffffffffffffffffffffffff826102bc565b61030386836102bc565b95508019841693508086168417925050509392505050565b6000819050919050565b6000819050919050565b600061034a6103456103408461031b565b610325565b61031b565b9050919050565b6000819050919050565b6103648361032f565b61037861037082610351565b8484546102c9565b825550505050565b600090565b61038d610380565b61039881848461035b565b505050565b5b818110156103bc576103b1600082610385565b60018101905061039e565b5050565b601f821115610401576103d281610297565b6103db846102ac565b810160208510156103ea578190505b6103fe6103f6856102ac565b83018261039d565b50505b505050565b600082821c905092915050565b600061042460001984600802610406565b1980831691505092915050565b600061043d8383610413565b9150826002028217905092915050565b610456826101fd565b67ffffffffffffffff81111561046f5761046e610208565b5b6104798254610266565b6104848282856103c0565b600060209050601f8311600181146104b757600084156104a5578287015190505b6104af8582610431565b865550610517565b601f1984166104c586610297565b60005b828110156104ed578489015182556001820191506020850194506020810190506104c8565b8683101561050a5784890151610506601f891682610413565b8355505b6001600288020188555050505b505050505050565b600080fd5b61052d8161031b565b811461053857600080fd5b50565b60008151905061054a81610524565b92915050565b6000602082840312156105665761056561051f565b5b60006105748482850161053b565b91505092915050565b7f4e487b7100000000000000000000000000000000000000000000000000000000600052601160045260246000fd5b60008160011c9050919050565b6000808291508390505b6001851115610603578086048111156105df576105de61057d565b5b60018516156105ee5780820291505b80810290506105fc856105ac565b94506105c3565b94509492505050565b60008261061c57600190506106d8565b8161062a57600090506106d8565b8160018114610640576002811461064a57610679565b60019150506106d8565b60ff84111561065c5761065b61057d565b5b8360020a9150848211156106735761067261057d565b5b506106d8565b5060208310610133831016604e8410600b84101617156106ae5782820a9050838111156106a9576106a861057d565b5b6106d8565b6106bb84848460016105b9565b925090508184048111156106d2576106d161057d565b5b81810290505b9392505050565b60006106ea8261031b565b91506106f58361031b565b92506107227fffffffffffffffffffffffffffffffffffffffffffffffffffffffffffffffff848461060c565b905092915050565b60006107358261031b565b91506107408361031b565b925082820261074e8161031b565b915082820484148315176107655761076461057d565b5b5092915050565b6107758161031b565b82525050565b6000602082019050610790600083018461076c565b92915050565b611943806107a56000396000f3fe608060405234801561001057600080fd5b50600436106101005760003560e01c80638da5cb5b11610097578063beabacc811610066578063beabacc8146102eb578063dd62ed3e1461031b578063e29c4c291461034b578063fb9321081461037b57610100565b80638da5cb5b1461024f57806395d89b411461026d578063af4215641461028b578063bda81e0a146102bb57610100565b80631ea5a1f8116100d35780631ea5a1f8146101a157806323b872dd146101d1578063313ce5671461020157806370a082311461021f57610100565b8063061dff9a1461010557806306fdde0314610135578063095ea7b31461015357806318160ddd14610183575b600080fd5b61011f600480360381019061011a919061132b565b6103ab565b60405161012c9190611373565b60405180910390f35b61013d6106f4565b60405161014a919061141e565b60405180910390f35b61016d60048036038101906101689190611476565b610782565b60405161017a9190611373565b60405180910390f35b61018b610874565b60405161019891906114c5565b60405180910390f35b6101bb60048036038101906101b6919061132b565b61087a565b6040516101c89190611373565b60405180910390f35b6101eb60048036038101906101e691906114e0565b610a25565b6040516101f89190611373565b60405180910390f35b610209610bc5565b604051610216919061154f565b60405180910390f35b6102396004803603810190610234919061132b565b610bd8565b60405161024691906114c5565b60405180910390f35b610257610bf0565b6040516102649190611579565b60405180910390f35b610275610c16565b604051610282919061141e565b60405180910390f35b6102a560048036038101906102a09190611476565b610ca4565b6040516102b29190611373565b60405180910390f35b6102d560048036038101906102d0919061132b565b610e18565b6040516102e291906114c5565b60405180910390f35b610305600480360381019061030091906114e0565b610e61565b6040516103129190611373565b60405180910390f35b61033560048036038101906103309190611594565b611001565b60405161034291906114c5565b60405180910390f35b61036560048036038101906103609190611594565b611026565b60405161037291906114c5565b60405180910390f35b61039560048036038101906103909190611476565b61104b565b6040516103a29190611373565b60405180910390f35b600080600760003373ffffffffffffffffffffffffffffffffffffffff1673ffffffffffffffffffffffffffffffffffffffff16815260200190815260200160002060008473ffffffffffffffffffffffffffffffffffffffff1673ffffffffffffffffffffffffffffffffffffffff16815260200190815260200160002054905060008111610470576040517f08c379a000000000000000000000000000000000000000000000000000000000815260040161046790611620565b60405180910390fd5b80600560003373ffffffffffffffffffffffffffffffffffffffff1673ffffffffffffffffffffffffffffffffffffffff1681526020019081526020016000205410156104f2576040517f08c379a00000000000000000000000000000000000000000000000000000000081526004016104e99061168c565b60405180910390fd5b80600560003373ffffffffffffffffffffffffffffffffffffffff1673ffffffffffffffffffffffffffffffffffffffff168152602001908152602001600020600082825461054191906116db565b9250508190555080600560008573ffffffffffffffffffffffffffffffffffffffff1673ffffffffffffffffffffffffffffffffffffffff1681526020019081526020016000206000828254610597919061170f565b925050819055506000600760003373ffffffffffffffffffffffffffffffffffffffff1673ffffffffffffffffffffffffffffffffffffffff16815260200190815260200160002060008573ffffffffffffffffffffffffffffffffffffffff1673ffffffffffffffffffffffffffffffffffffffff168152602001908152602001600020819055508273ffffffffffffffffffffffffffffffffffffffff163373ffffffffffffffffffffffffffffffffffffffff167fddf252ad1be2c89b69c2b068fc378daa952ba7f163c4a11628f55a4df523b3ef8360405161067d91906114c5565b60405180910390a38273ffffffffffffffffffffffffffffffffffffffff163373ffffffffffffffffffffffffffffffffffffffff167fd9a9c1b40a747e79bd4c1aeabd897bfd5b3679e58fcdcd20dd7af4a8274196bc836040516106e291906114c5565b60405180910390a36001915050919050565b6000805461070190611772565b80601f016020809104026020016040519081016040528092919081815260200182805461072d90611772565b801561077a5780601f1061074f5761010080835404028352916020019161077a565b820191906000526020600020905b81548152906001019060200180831161075d57829003601f168201915b505050505081565b600081600660003373ffffffffffffffffffffffffffffffffffffffff1673ffffffffffffffffffffffffffffffffffffffff16815260200190815260200160002060008573ffffffffffffffffffffffffffffffffffffffff1673ffffffffffffffffffffffffffffffffffffffff168152602001908152602001600020819055508273ffffffffffffffffffffffffffffffffffffffff163373ffffffffffffffffffffffffffffffffffffffff167f8c5be1e5ebec7d5bd14f71427d1e84f3dd0314c0f7b2291e5b200ac8c7c3b9258460405161086291906114c5565b60405180910390a36001905092915050565b60035481565b600080600760003373ffffffffffffffffffffffffffffffffffffffff1673ffffffffffffffffffffffffffffffffffffffff16815260200190815260200160002060008473ffffffffffffffffffffffffffffffffffffffff1673ffffffffffffffffffffffffffffffffffffffff1681526020019081526020016000205490506000811161093f576040517f08c379a000000000000000000000000000000000000000000000000000000000815260040161093690611620565b60405180910390fd5b6000600760003373ffffffffffffffffffffffffffffffffffffffff1673ffffffffffffffffffffffffffffffffffffffff16815260200190815260200160002060008573ffffffffffffffffffffffffffffffffffffffff1673ffffffffffffffffffffffffffffffffffffffff168152602001908152602001600020819055508273ffffffffffffffffffffffffffffffffffffffff163373ffffffffffffffffffffffffffffffffffffffff167f99b36ac41ea38073fef8bb6ab55f706c4a61040b3f029842844451ae3e5952f660405160405180910390a36001915050919050565b6000600560008573ffffffffffffffffffffffffffffffffffffffff1673ffffffffffffffffffffffffffffffffffffffff16815260200190815260200160002054821115610aa9576040517f08c379a0000000000000000000000000000000000000000000000000000000008152600401610aa09061168c565b60405180910390fd5b81600560008673ffffffffffffffffffffffffffffffffffffffff1673ffffffffffffffffffffffffffffffffffffffff1681526020019081526020016000206000828254610af891906116db565b9250508190555081600560008573ffffffffffffffffffffffffffffffffffffffff1673ffffffffffffffffffffffffffffffffffffffff1681526020019081526020016000206000828254610b4e919061170f565b925050819055508273ffffffffffffffffffffffffffffffffffffffff168473ffffffffffffffffffffffffffffffffffffffff167fddf252ad1be2c89b69c2b068fc378daa952ba7f163c4a11628f55a4df523b3ef84604051610bb291906114c5565b60405180910390a3600190509392505050565b600260009054906101000a900460ff1681565b60056020528060005260406000206000915090505481565b600460009054906101000a900473ffffffffffffffffffffffffffffffffffffffff1681565b60018054610c2390611772565b80601f0160208091040260200160405190810160405280929190818152602001828054610c4f90611772565b8015610c9c5780601f10610c7157610100808354040283529160200191610c9c565b820191906000526020600020905b815481529060010190602001808311610c7f57829003601f168201915b505050505081565b600081600560008573ffffffffffffffffffffffffffffffffffffffff1673ffffffffffffffffffffffffffffffffffffffff168152602001908152602001600020541015610d28576040517f08c379a0000000000000000000000000000000000000000000000000000000008152600401610d1f90611815565b60405180910390fd5b81600760008573ffffffffffffffffffffffffffffffffffffffff1673ffffffffffffffffffffffffffffffffffffffff16815260200190815260200160002060003373ffffffffffffffffffffffffffffffffffffffff1673ffffffffffffffffffffffffffffffffffffffff168152602001908152602001600020819055508273ffffffffffffffffffffffffffffffffffffffff163373ffffffffffffffffffffffffffffffffffffffff167f199889bb68377137835ceba2106404907a1747d53227634bb4a6b613800e3cb384604051610e0691906114c5565b60405180910390a36001905092915050565b6000600560008373ffffffffffffffffffffffffffffffffffffffff1673ffffffffffffffffffffffffffffffffffffffff168152602001908152602001600020549050919050565b600081600560008573ffffffffffffffffffffffffffffffffffffffff1673ffffffffffffffffffffffffffffffffffffffff168152602001908152602001600020541015610ee5576040517f08c379a0000000000000000000000000000000000000000000000000000000008152600401610edc9061168c565b60405180910390fd5b81600560008573ffffffffffffffffffffffffffffffffffffffff1673ffffffffffffffffffffffffffffffffffffffff1681526020019081526020016000206000828254610f3491906116db565b9250508190555081600560008673ffffffffffffffffffffffffffffffffffffffff1673ffffffffffffffffffffffffffffffffffffffff1681526020019081526020016000206000828254610f8a919061170f565b925050819055508373ffffffffffffffffffffffffffffffffffffffff168373ffffffffffffffffffffffffffffffffffffffff167fddf252ad1be2c89b69c2b068fc378daa952ba7f163c4a11628f55a4df523b3ef84604051610fee91906114c5565b60405180910390a3600190509392505050565b6006602052816000526040600020602052806000526040600020600091509150505481565b6007602052816000526040600020602052806000526040600020600091509150505481565b6000600460009054906101000a900473ffffffffffffffffffffffffffffffffffffffff1673ffffffffffffffffffffffffffffffffffffffff163373ffffffffffffffffffffffffffffffffffffffff16146110dd576040517f08c379a00000000000000000000000000000000000000000000000000000000081526004016110d490611881565b60405180910390fd5b81600560003073ffffffffffffffffffffffffffffffffffffffff1673ffffffffffffffffffffffffffffffffffffffff16815260200190815260200160002054101561115f576040517f08c379a0000000000000000000000000000000000000000000000000000000008152600401611156906118ed565b60405180910390fd5b81600560003073ffffffffffffffffffffffffffffffffffffffff1673ffffffffffffffffffffffffffffffffffffffff16815260200190815260200160002060008282546111ae91906116db565b9250508190555081600560008573ffffffffffffffffffffffffffffffffffffffff1673ffffffffffffffffffffffffffffffffffffffff1681526020019081526020016000206000828254611204919061170f565b925050819055508273ffffffffffffffffffffffffffffffffffffffff163073ffffffffffffffffffffffffffffffffffffffff167fddf252ad1be2c89b69c2b068fc378daa952ba7f163c4a11628f55a4df523b3ef8460405161126891906114c5565b60405180910390a38273ffffffffffffffffffffffffffffffffffffffff167f33ad5d6b2a46b5457e0d36286a2686a0390b0821dedbbdf8dcdcda64f4782c68836040516112b691906114c5565b60405180910390a26001905092915050565b600080fd5b600073ffffffffffffffffffffffffffffffffffffffff82169050919050565b60006112f8826112cd565b9050919050565b611308816112ed565b811461131357600080fd5b50565b600081359050611325816112ff565b92915050565b600060208284031215611341576113406112c8565b5b600061134f84828501611316565b91505092915050565b60008115159050919050565b61136d81611358565b82525050565b60006020820190506113886000830184611364565b92915050565b600081519050919050565b600082825260208201905092915050565b60005b838110156113c85780820151818401526020810190506113ad565b60008484015250505050565b6000601f19601f8301169050919050565b60006113f08261138e565b6113fa8185611399565b935061140a8185602086016113aa565b611413816113d4565b840191505092915050565b6000602082019050818103600083015261143881846113e5565b905092915050565b6000819050919050565b61145381611440565b811461145e57600080fd5b50565b6000813590506114708161144a565b92915050565b6000806040838503121561148d5761148c6112c8565b5b600061149b85828601611316565b92505060206114ac85828601611461565b9150509250929050565b6114bf81611440565b82525050565b60006020820190506114da60008301846114b6565b92915050565b6000806000606084860312156114f9576114f86112c8565b5b600061150786828701611316565b935050602061151886828701611316565b925050604061152986828701611461565b9150509250925092565b600060ff82169050919050565b61154981611533565b82525050565b60006020820190506115646000830184611540565b92915050565b611573816112ed565b82525050565b600060208201905061158e600083018461156a565b92915050565b600080604083850312156115ab576115aa6112c8565b5b60006115b985828601611316565b92505060206115ca85828601611316565b9150509250929050565b7f4e6f2070656e64696e6720726571756573740000000000000000000000000000600082015250565b600061160a601283611399565b9150611615826115d4565b602082019050919050565b60006020820190508181036000830152611639816115fd565b9050919050565b7f496e73756666696369656e742062616c616e6365000000000000000000000000600082015250565b6000611676601483611399565b915061168182611640565b602082019050919050565b600060208201905081810360008301526116a581611669565b9050919050565b7f4e487b7100000000000000000000000000000000000000000000000000000000600052601160045260246000fd5b60006116e682611440565b91506116f183611440565b9250828203905081811115611709576117086116ac565b5b92915050565b600061171a82611440565b915061172583611440565b925082820190508082111561173d5761173c6116ac565b5b92915050565b7f4e487b7100000000000000000000000000000000000000000000000000000000600052602260045260246000fd5b6000600282049050600182168061178a57607f821691505b60208210810361179d5761179c611743565b5b50919050565b7f52657175657374656420616464726573732068617320696e737566666963696560008201527f6e742062616c616e636500000000000000000000000000000000000000000000602082015250565b60006117ff602a83611399565b915061180a826117a3565b604082019050919050565b6000602082019050818103600083015261182e816117f2565b9050919050565b7f4e6f742074686520636f6e7472616374206f776e657200000000000000000000600082015250565b600061186b601683611399565b915061187682611835565b602082019050919050565b6000602082019050818103600083015261189a8161185e565b9050919050565b7f496e73756666696369656e7420636f6e74726163742062616c616e6365000000600082015250565b60006118d7601d83611399565b91506118e2826118a1565b602082019050919050565b60006020820190508181036000830152611906816118ca565b905091905056fea264697066735822122043a2d657eeb40a81cf708c6dbd679a8713cd505721d70c019530a3eecc7d613364736f6c634300081b0033",
  "linkReferences": {},
  "deployedLinkReferences": {}
}